:100000000C945E060C947F060C947F060C947F067D
:100010000C947F060C947F060C947F060C947F064C
:100020000C947F060C947F060C947F060C947F063C
:100030000C947F060C947F060C947F060C947F062C
:100040000C947F060C947F060C947F060C947F061C
:100050000C947F060C94EA090C947F060C947F069E
:100060000C947F060C94B0070C948E080C947F06B9
:100070000C947F060C947F060C947F060C947F06EC
:100080000C947F060C947F060C947F060C947F06DC
:100090000C947F060C947F060C947F060C947F06CC
:1000A0000C947F060C947F060C947F060C947F06BC
:1000B0000C947F060C947F060C947F060C947F06AC
:1000C0000C947F060C947F060C947F060C947F069C
:1000D0000C947F060C947F060C947F060C947F068C
:1000E0000C947F06B8016301B8016301B801630194
:1000F0005D010A010B025800B80163015D010A01AC
:100100000B025800B801C602930263019302630117
:1001100093026301BA020A010B0258009F016301B6
:100120005D010A010B025800B801C60270036301A9
:10013000B8010A01B8015800700363013E03B10021
:100140001003B100E4025800BA025800E402B10002
:100150000000B100D201B100780263014B02B1008E
:100160002A02B1000B025800ED0158000B02B10049
:100170000000B1005D0158009F0163015D010A01AB
:10018000B80158000B026301B8010A010B025800C4
:100190009302C60270036301B8010A01B801580056
:1001A000700363013E03B1001003B100E402580084
:1001B000BA025800E402B1000000B100D201B1005F
:1001C000780263014B02B1002A02B1000B02580011
:1001D000ED0158000B02B1000000B1005D01B1005B
:1001E0009F0163015D010A010B025800B801630120
:1001F0005D010A0106015800B801C60201000000B5
:100200004901B1004901B1008701B1008701B10086
:10021000B801B100B801B1000B02B100B80158003B
:1002200078020A014B02B1000B025800B8015800D5
:100230008701B100B80158000B02B1000B02B100F8
:10024000B80158004B027703B80158000B02B10007
:100250000B02B1000B0258004B02B10078024200C1
:1002600093022C001003B100930258004B02580077
:100270000B02B100870158009F01B100B801B10025
:100280003701580026017703B801B100B801B10069
:100290000B02B100B801580078020A014B02B1000C
:1002A0000B025800B80158008701B100B80158008E
:1002B0000B02B1000B02B100B80158004B027703EA
:1002C0000B02B1004B02B100780258009302B1005A
:1002D0004B02B1000B02B100B801B1008701580018
:1002E000490158003701580026018C05ED016301D2
:1002F000DC036301E402DD001003DD007003DD00B8
:1003000093026301100363014B026301B8016301AF
:10031000ED016301DC036301E402DD001003DD0095
:100320007003DD002605C6027003C602DC04DD0092
:100330007003DD00DC040A019704DD0010030A01EC
:100340009704DD001003DD00BA020A011604DD0087
:100350007802DD001003DD001604DD0037015800CF
:100360005D01580087017703DC036301DC0358005B
:10037000DC035800DC035800DC035800DC03B10048
:10038000DC035800DC035800DC035800DC03580091
:10039000DC03C60201000000F700BB002601BB0021
:1003A0007201BB00ED017102B801BB009F01770132
:1003B0007201BB0026017701F700EE02F700BB00D7
:1003C0002601BB007201BB00ED017102B801BB0048
:1003D0009F0177017201BB0026017701F700EE0251
:1003E0002601BB002601BB002601BB001501BB0096
:1003F00026013801D00071022601BB002601BB0096
:100400001501BB0026013801D00038017201BB0084
:100410007201BB007201BB004901BB0072013801CF
:10042000150171027201BB007201BB004901BB00E2
:1004300072013801150138018701FA008701FA00BD
:100440008701FA008701FA004901FA002601FA0043
:100450001501DC058701FA008701FA008701FA001F
:100460008701FA004901FA002601FA001501DC05AE
:100470002601BB002601BB002601BB001501BB0005
:1004800026013801D00071022601BB002601BB0005
:100490001501BB0026013801D00038017201BB00F4
:1004A0007201BB007201BB004901BB00720138013F
:1004B000150171027201BB007201BB004901BB0052
:1004C00072013801150138018701FA008701FA002D
:1004D0008701FA008701FA004901FA002601FA00B3
:1004E0001501DC058701FA008701FA008701FA008F
:1004F0008701FA004901FA002601FA001501DC051E
:10050000010000005D0127070000A600D000A60042
:100510005D01A6003701A6000000A60037014D01CD
:100520001501A6000000A600150127071501A60069
:100530003701A6005D014D010000A6005D015300DA
:10054000000053005D015300000053005D015300A3
:10055000000053005D01A6000000A6005D015300ED
:10056000000053005D015300000053005D01530083
:10057000000053005D015300000053005D01A60020
:100580000000A6005D015300000053005D01530010
:100590000000530087014D010000A60087015300B1
:1005A00000005300870153000000530087015300EF
:1005B000000053008701A6000000A6008701530039
:1005C00000005300870153000000530087015300CF
:1005D0000000530087015300000053008701A6006C
:1005E0000000A6008701530000005300870153005C
:1005F00000005300D201F3019F01A60000004D014D
:10060000D201A600D201A6009F01A6000000A6000C
:100610009F01A60000004D019F014D010000A600B2
:10062000D201F3019F01A60000004D01D201A600F6
:10063000D201A6009F01A6000000A6009F01A6000F
:1006400000004D019F014D010000A6000B02F301C7
:10065000D201A60000004D010B02A6000B02A6006D
:10066000D201A6000000A600D201A60000004D01A4
:10067000D2014D0100009A028701A60000004D0141
:100680005D01A6005D01A6008701A6000000A6008E
:100690008701A60000004D0187014D010000A60062
:1006A000D201F3019F01A60000004D01D201A60076
:1006B000D201A6009F01A6000000A6009F01A6008F
:1006C00000004D019F014D010000A600D201F30181
:1006D0009F01A60000004D01D201A600D201A60094
:1006E0009F01A6000000A6009F01A60000004D018A
:1006F0009F014D010000A6000B02F301D201A600EC
:1007000000004D010B02A6000B02A600D201A600BC
:100710000000A600D201A60000004D01D2014D014B
:1007200000009A028701A60000004D015D01A600AD
:100730005D01A6008701A6000000A6008701A600B3
:1007400000004D0187014D0100004D015D01F301E5
:10075000870140039F01F301D2014D019F01A600D3
:100760008701A6005D01A6001501F3010B02270712
:10077000D201A6000B020E0B5D01F30187014003BD
:100780009F01F301D2014D019F01A6008701A60040
:100790005D01A6001501F3010B022707D201A60097
:1007A0000B02680AD201F3019F01A60000004D016F
:1007B000D201A600D201A6009F01A6000000A6005B
:1007C0009F01A60000004D019F014D010000A60001
:1007D000D201F3019F01A60000004D01D201A60045
:1007E000D201A6009F01A6000000A6009F01A6005E
:1007F00000004D019F014D010000A6000B02F30116
:10080000D201A60000004D010B02A6000B02A600BB
:10081000D201A6000000A600D201A60000004D01F2
:10082000D2014D010000A6005D01F3018701A60081
:1008300000004D015D01A6005D01A6008701A60034
:100840000000A6008701A60000004D0187014D01B0
:100850000000A600D201F3019F01A60000004D0197
:10086000D201A600D201A6009F01A6000000A600AA
:100870009F01A60000004D019F014D010000A60050
:10088000D201F3019F01A60000004D01D201A60094
:10089000D201A6009F01A6000000A6009F01A600AD
:1008A00000004D019F014D010000A6009F01F301D2
:1008B0008701A60000004D019F01A6009F01A60030
:1008C0008701A6000000A6008701A60000004D01D8
:1008D00087014D010000A600D201F3019F014003F2
:1008E00000003405010000005D0127070000A6009C
:1008F000D000A6005D01A6003701A6000000A600FA
:1009000037014D011501A6000000A60015012707BB
:100910001501A6003701A6005D014D010000A600EB
:100920005D015300000053005D01530000005300BF
:100930005D015300000053005D01A6000000A60009
:100940005D015300000053005D015300000053009F
:100950005D015300000053005D015300000053008F
:100960005D01A6000000A6005D01530000005300D9
:100970005D0153000000530087014D010000A600F7
:10098000870153000000530087015300000053000B
:1009900087015300000053008701A6000000A60055
:1009A00087015300000053008701530000005300EB
:1009B00087015300000053008701530000005300DB
:1009C0008701A6000000A600870153000000530025
:1009D0008701530000005300D201F30106014D01CD
:1009E0005D014D01D201A6009F014D018701A600C6
:1009F0005D01F30137014D015D01A60000004D01CD
:100A000006014D015D014D01D201A6009F014D017E
:100A10008701A6005D01F30137014D015D01A600CC
:100A200000004D0106014D015D014D01D201A600FE
:100A30000B024D012A02A6000B02A600D2014D01B5
:100A40009F01A600D201A6000B029A02D201F30177
:100A50009F014D0187014D015D01A60049019A02E8
:100A60000000F30106014D015D014D01D201A60018
:100A70009F014D018701A6005D01F30137014D0182
:100A80005D01A60000004D0106014D015D014D0113
:100A9000D201A6009F014D018701A6005D01F3016F
:100AA00037014D015D01A60000004D0106014D0119
:100AB0005D014D01D201A6000B024D012A02A600E4
:100AC0000B02A600D2014D019F01A6008701A600DE
:100AD0000B02F9000000F900D2019A029F014D01BA
:100AE00087014D019F01A60087019A0200004D0178
:100AF0001501A6005D01A6000B02A6000000400340
:100B00001501A6005D01A6000B024D01D201A60051
:100B10009F01A6008701A6000000A600E900A6002C
:100B20001501A6009F01A60000004003E900A600F1
:100B30001501A6009F014D0187014D010000B50B75
:100B40001501A6005D01A6000B02A60000004003EF
:100B50001501A6005D01A6000B024D01D201A60001
:100B60009F01A60000004D013701A6008701A600E5
:100B70007802A600000040033701A6008701A60006
:100B800078024D012A024D0100005B0C06014D0167
:100B90005D014D01D201A6000B02F301D201A600B6
:100BA0009F01A6000000A60087014D019F01F301EF
:100BB0008701A6005D01A6000000A60037014D01D7
:100BC0005D019A025D01A6008701A6009F01A600B3
:100BD00000009A02D2014D019F014D018701A6003C
:100BE000D201A6000000A600D201A6009F014D017F
:100BF0008701A6000000A6009F01A6008701F3015F
:100C00005D014D014901A6000000A6005D01A6009E
:100C10000B02A6000000A6000B02A6000B02A60015
:100C20000B02A6000B02A6000B02A6000000A60005
:100C30000B02F301D201A6000000A6009F014D01A6
:100C4000D201A6009F014D018701A6000000A60069
:100C50005D01A6000000A60006014D019F01F30101
:100C60008701A6005D01A6000000A6003701A600CE
:100C70005D019A025D01A6008701A6009F01A60002
:100C800000009A02D2014D010B024D012A02A6007A
:100C90000B02A6000000A6000B02A600D2014D0127
:100CA0009F01A6000000A6003701A6008701F301FE
:100CB0005D014003000034050100000011241FBE47
:100CC000CFEFD1E2DEBFCDBF00E00CBF13E0A0E06C
:100CD000B2E0E2EAF3E200E00BBF02C007900D923F
:100CE000A239B107D9F715E0A2E9B3E001C01D921E
:100CF000A73BB107E1F70E9481060C94D0110C9438
:100D00000000EF920F93CF93DF93809101018064F5
:100D100080930101249A0E946D09EC0188819981D8
:100D200090939403809393030E948709EE24E394A5
:100D300000E028E040E05BE460E070E080E00E94DA
:100D4000EC0678940E94AB0760E080E00E94F50713
:100D500080E092E00E948D070E94E3078823E1F380
:100D60000E945E078635A9F0873538F48E34B9F0D5
:100D7000803531F1823481F71AC08E3681F08F369A
:100D800018F4823649F713C08037D1F0863721F73F
:100D900002C081E001C08FEF0E94B70ADDCF8091D1
:100DA00092038230C8F6809192038F5F07C08091D2
:100DB0009203882389F28091920381508093920359
:100DC000E0919203F0E0EE0FFF1FEC0FFD1F80811A
:100DD00091810E94E60AC0CFEF920F93CF93DF93E9
:100DE0003E2D833060F490E0E3E0880F991FEA9590
:100DF000E1F780549F4F9093730280937202A09109
:100E00007202B0917302FD0182E0819388E9ED01E5
:100E10008983293010F08CE98983EF0121963130E4
:100E200019F48181877F04C0323019F48181886090
:100E30008183013019F48881806306C08881023083
:100E400011F4806201C08F7C888388818F738883CE
:100E50002296D0937302C09372022297CB01BA01FB
:100E60000E940C0F9B01AC0160E074E284E79BE4FC
:100E70000E94CE0D20E030E040E05EE30E94CF0C07
:100E800020E030E040E85FE30E94710C0E94050B17
:100E90006A83DF91CF910F91EF900895982F809101
:100EA000C00085FFFCCF9093C60008958091C000DC
:100EB00087FFFCCF8091C60090E008959091970540
:100EC000809198059817D1F3E0919805F0E0E956E4
:100ED000FB4F8081909198059F5F9093980590E0DB
:100EE0000895482F209196048091950430E08F5FFB
:100EF00090E028173907B1F3E0919504F0E0EB5644
:100F0000FC4F4083809195048F5F8093950480917E
:100F1000C10080628093C1000895CF93DF93EC01FC
:100F200003C00E947107219688818823D1F7DF9141
:100F3000CF9108950F931F938C0180E692E00E9459
:100F40008D07C8010E948D0785E692E00E948D07FB
:100F50001F910F9108958AE692E00E948D070895EF
:100F60001F920F920FB60F9211242F933F938F93DE
:100F70009F93EF93FF93209198058091970530E020
:100F80008F5F90E02817390769F0E091970580910D
:100F9000C600F0E0E956FB4F8083809197058F5F94
:100FA00080939705FF91EF919F918F913F912F91A2
:100FB0000F900FBE0F901F901895E1ECF0E080812C
:100FC000806280830895909197058091980520E034
:100FD00030E0981711F021E030E0C9010895E1EC0C
:100FE000F0E080818F7D80830895CF92DF92EF9231
:100FF000FF920F931F93CF93DF93CDB7DEB7259763
:101000000FB6F894DEBF0FBECDBFC82E062F7E01EF
:101010000894E11CF11C85E0F70111928A95E9F72B
:101020008FE692E00E948D0710E04AE050E0B801A0
:10103000C7010E943309C7010E948D078BE30E94FC
:101040007107DD244AE050E0B601C7010E94330970
:10105000C7010E948D0786E60E94710725960FB68C
:10106000F894DEBF0FBECDBFDF91CF911F910F91DE
:10107000FF90EF90DF90CF900895FC0107C0809122
:10108000C00085FFFCCF9093C600319690819923D4
:10109000B1F70895FC0120E08091C00087FFFCCFEC
:1010A0009091C600892F80528F3550F4243140F43E
:1010B0008091C00085FFFCCF9093C6002F5F919375
:1010C0009830D1F4222341F312928091C00085FF21
:1010D000FCCF88E08093C6008091C00085FFFCCFE4
:1010E00080E28093C6008091C00085FFFCCF215034
:1010F00088E08093C600D0CF9D3071F61082809139
:10110000C00085FFFCCF8AE08093C6008091C000BC
:1011100085FFFCCF8DE08093C60008951F920F924B
:101120000FB60F9211248F939F93EF93FF9390919B
:10113000950480919604981771F0E0919604F0E080
:10114000EB56FC4F80818093C600809196048F5FA0
:101150008093960405C08091C1008F7D8093C1006B
:10116000FF91EF919F918F910F900FBE0F901F9065
:1011700018950F931F93CF93DF93EC0100E09091AC
:101180009705809198059817D1F3E0919805F0E0C4
:10119000E956FB4F1081809198058F5F80939805E9
:1011A000812F80528F3538F4043128F4812F0E942A
:1011B00071070F5F1993183071F4002301F3015088
:1011C0001A9288E00E94710780E20E94710788E00D
:1011D0000E947107D4CF1D3091F618828AE00E94D8
:1011E00071078DE00E947107DF91CF911F910F91E0
:1011F0000895FC0140E050E014C0892F80538A30EC
:1012000098F4892F90E0C0979A0173E0220F331F62
:101210007A95E1F7440F551F420F531F480F591F8E
:1012200031969081992349F7CA0108959C01DC0108
:1012300070E061507040FC01E60FF71F6F5F7F4F59
:1012400040E050E006C09C9181818D934F5F5F4FDD
:1012500091833197CB01841B950B01974817590750
:1012600094F3C9010895EF92FF920F931F93CF93C8
:10127000DF93EC019B01672B21F480E388831982C3
:1012800024C000E010E0E42EFF24C901B7010E9451
:1012900072118A30910514F0895C01C0805DFE01F5
:1012A000E00FF11F80830F5F1F4FC901B7010E943C
:1012B00072119B01672B49F7FE01E00FF11F1082AD
:1012C000602FCE010E941609EC01CE01DF91CF9173
:1012D0001F910F91FF90EF90089584E792E0089599
:1012E000009719F480E090E00895BC0180E090E060
:1012F0000E940C0F9B01AC0160E074E284E796E46D
:101300000E94CE0D0E94050B862F90E0089516BC1A
:101310008AEF87BD92E094BD83E085BD90936E0017
:101320000895482F2091A1053091A20580919F0535
:101330009091A005880F991F880F991F820F931F06
:10134000FC01659174916130710509F442C080918E
:101350009F059091A005880F991F880F991F280F4E
:10136000391FF90185919491892B21F08091880290
:10137000882329F41092B0001092B10008954423FC
:10138000F1F0809101018064809301011092B2001C
:101390004093B3008091B300909188028695899F15
:1013A000C001112464E670E00E9486116093B400CD
:1013B00083E28093B0008FE08093B1000895809124
:1013C000B100887F8093B100809102018F7B809370
:1013D000020108951F920F920FB60F9211242F93BE
:1013E0003F934F935F936F937F938F939F93AF93AD
:1013F000BF93CF93DF93EF93FF9380919905882359
:1014000009F4A2C080919B0590919C05892BF1F471
:1014100080919F059091A005892BC1F480919A0538
:101420008823A1F0E0919F05F091A005EE0FFF1F2A
:10143000EE0FFF1F8091A1059091A205E80FF91F03
:10144000859194910E9470090E94910980919B0559
:1014500090919C05C091A105D091A20520919F0576
:101460003091A005220F331F220F331F2C0F3D1F79
:101470002E5F3F4FF901459154918417950769F408
:1014800080919A05882349F010929C0510929B0543
:1014900010929A0580E00E94910980919A05882314
:1014A00079F580919D0590919E05019690939E05FA
:1014B00080939D0580919D0590919E050A9701F569
:1014C00080919F059091A00501969093A00580932F
:1014D0009F05E0919F05F091A005EE0FFF1FEE0F15
:1014E000FF1FEC0FFD1F859194910E9470090E94CF
:1014F000910910929E0510929D0581E080939A05B6
:1015000080919B0590919C05019690939C058093FA
:101510009B0580919F059091A005880F991F880FCA
:10152000991FC80FD91FFE0185919491019761F40D
:1015300080919905882341F01092A00510929F0593
:1015400010929C0510929B05FF91EF91DF91CF9136
:10155000BF91AF919F918F917F916F915F914F91CB
:101560003F912F910F900FBE0F901F901895982FBD
:1015700080918802882349F080918802843628F47B
:1015800080918802890F809388028091B3009091A6
:1015900088028695899FC001112464E670E00E944C
:1015A00086116093B40066E080E00E94F5078EE744
:1015B00092E00E948D076091880270E04AE083EA21
:1015C00095E00E9433090E948D0708959C01909335
:1015D000A2058093A10581E08093990510929C0556
:1015E00010929B051092A00510929F0580939A057A
:1015F00016BCF901259134914AE0B90183EA95E0DE
:101600000E9433090E948D070895EF92FF920F9375
:101610001F937B018C0120E030E040E05FE40E94FA
:10162000830E88237CF020E030E040E05FE4C801D6
:10163000B7010E94710C0E94B90E6050704080404A
:10164000904804C0C801B7010E94B90E1F910F91C4
:10165000FF90EF900895A0E0B0E0E1E3FBE00C9490
:101660009B112C015B01FA01DC019C91923008F482
:1016700032C1EB018881823008F42CC1943071F4BE
:10168000843009F028C1F20191818981981709F409
:1016900022C119E8412E12E0512E1DC1843009F4F7
:1016A00019C18230A9F4923009F015C1CA01A20112
:1016B00028E0DA010D90AD01EC010992CE01215034
:1016C000C1F7E5018981E20199818923818300C104
:1016D000923009F4FFC0E201CA80DB80EB018A810D
:1016E0009B81E2012C813D814E815F81EB01EC8089
:1016F000FD800E811F81B601681B790BDB0177FF2E
:1017000003C0709561957F4F603271050CF05DC02C
:101710001A161B065CF566247724430181E090E0ED
:10172000A0E0B0E0062E04C0880F991FAA1FBB1FBF
:101730000A94D2F70197A109B1098E219F21A02314
:10174000B1230097A105B10529F0B1E06B2E712CF2
:10175000812C912C04C016950795F794E7946A950F
:10176000D2F7E628F728082919293BC0AB2BC9F185
:10177000C60ED71E66247724430181E090E0A0E0E6
:10178000B0E0062E04C0880F991FAA1FBB1F0A9441
:10179000D2F70197A109B10982239323A423B5238A
:1017A0000097A105B10529F0A1E06A2E712C812CCA
:1017B000912C04C056954795379527956A95D2F791
:1017C00026293729482959290CC08C159D0534F044
:1017D0006C0120E030E040E050E003C0EE24FF2444
:1017E0008701E2019981E5018981981709F443C0D5
:1017F000992339F0E21AF30A040B150BA80197019B
:1018000004C02E193F09400B510B57FD08C011822F
:10181000D382C28224833583468357831DC081E0EF
:101820008183D382C28288279927DC01821B930B94
:10183000A40BB50B84839583A683B7830DC0220FB9
:10184000331F441F551F248335834683578382816A
:1018500093810197938382832481358146815781C7
:10186000DA01C9010197A109B1098F5F9F4FAF4FFD
:10187000BF4328F30BC09183D382C2822E0D3F1D3C
:10188000401F511F248335834683578383E0808321
:1018900024813581468157815523D4F4C901AA2773
:1018A00097FDA095BA2F81709070A070B07056957A
:1018B000479537952795822B932BA42BB52B8483A3
:1018C0009583A683B78382819381019693838283D4
:1018D0002F0101C02501C201E0E1CDB7DEB70C94B4
:1018E000B711A0E2B0E0E7E7FCE00C94A511698332
:1018F0007A838B839C832D833E834F83588709E0B3
:10190000E02EF12CEC0EFD1EB701CE0101960E94D7
:10191000AC108E010F5E1F4FB801CE0105960E94DC
:10192000AC108A8991E089278A8BAE01475E5F4FB0
:10193000B801C7010E942B0B0E94CC0FE6E0A096D5
:101940000C94C111A0E2B0E0E8EAFCE00C94A5110F
:1019500069837A838B839C832D833E834F8358874F
:1019600089E0E82EF12CEC0EFD1EB701CE010196A8
:101970000E94AC108E010F5E1F4FB801CE0105967C
:101980000E94AC10AE01475E5F4FB801C7010E94D4
:101990002B0B0E94CC0FE6E0A0960C94C111A0E2A4
:1019A000B0E0E5EDFCE00C949B1169837A838B83B6
:1019B0009C832D833E834F83588799E0E92EF12C39
:1019C000EC0EFD1EB701CE0101960E94AC108E01F7
:1019D0000F5E1F4FB801CE0105960E94AC1099858D
:1019E000923088F089898230C0F0943019F48230C6
:1019F00029F009C0843029F4923079F469E872E062
:101A0000C6C0923041F420E09A858A89981321E07B
:101A10002A87B701BCC0823041F420E09A858A89C8
:101A2000981321E02A8BB801B2C0CD84DE84EF8404
:101A3000F8880D891E892F89388D882499245401AE
:101A400040E050E060E070E0442455243201E0E0E2
:101A5000F0E0C60181709070892BD9F0800E911E44
:101A6000A21EB31EDB01CA01840D951DA61DB71D64
:101A700040E050E060E070E080169106A206B306F8
:101A800020F441E050E060E070E0480F591F6A1F09
:101A90007B1F440C551C661C771C37FF08C081E077
:101AA00090E0A0E0B0E0482A592A6A2A7B2A3196C1
:101AB000E032F10549F0000F111F221F331FF69489
:101AC000E794D794C794C5CF8B899C892B853C8597
:101AD000820F931F02969C8F8B8F1A8E9A858A890C
:101AE000981711F081E08A8F2B8D3C8D17C0CA01A9
:101AF00081709070892B61F0B694A7949794879425
:101B000080E090E0A0E0B0E8882A992AAA2ABB2ABF
:101B100076956795579547952F5F3F4F77FDE7CFB0
:101B2000C9010BC0440F551F661F771FB7FC4160EA
:101B3000880C991CAA1CBB1C01974030A0E05A07D6
:101B4000A0E06A07A0E47A0768F39C8F8B8FDB0123
:101B5000CA018F779070A070B07080349105A10594
:101B6000B10561F447FD0AC081149104A104B104D8
:101B700029F0405C5F4F6F4F7F4F40784D8F5E8FF5
:101B80006F8F78A383E0898FBE01675E7F4FCB01A3
:101B90000E94CC0FE0E1A0960C94B711A8E1B0E050
:101BA000E4EDFDE00C94A11169837A838B839C831F
:101BB0002D833E834F8358878E01075F1F4FB801E7
:101BC000CE0101960E94AC1081E1E82EF12CEC0EC2
:101BD000FD1EB701CE0105960E94AC10398532304A
:101BE000F8F02989223010F4B70186C08A859A89D5
:101BF00089278A87343011F0323029F4321781F482
:101C000069E872E079C0243039F41D861E861F868B
:101C1000188A1C861B8604C0223021F484E0898740
:101C2000B8016AC06B857C858B899C89681B790BA0
:101C30007C876B872D853E854F8558898D899E8948
:101C4000AF89B88D281739074A075B0740F4220F80
:101C5000331F441F551F615070407C876B87A12C38
:101C6000B12CC12C10E4D12EEE24FF24870160E0BA
:101C700070E0281739074A075B0740F0EA28FB287D
:101C80000C291D29281B390B4A0B5B0BD694C794D2
:101C9000B794A794220F331F441F551F6F5F7F4FC8
:101CA0006F31710531F7D801C7018F779070A0703F
:101CB000B07080349105A105B105B9F4E7FC15C0F9
:101CC000211531054105510581F080E490E0A0E047
:101CD000B0E0E80EF91E0A1F1B1F80E89FEFAFEF70
:101CE000BFEFE822F9220A231B23ED86FE860F8729
:101CF000188BBE01675F7F4FCB010E94CC0FEAE0DB
:101D000068960C94BD11A8E1B0E0E9E8FEE00C94FF
:101D1000A51169837A838B839C832D833E834F83B4
:101D2000588789E0E82EF12CEC0EFD1EB701CE019C
:101D300001960E94AC108E010F5E1F4FB801CE01BC
:101D400005960E94AC108985823060F089898230C6
:101D500048F0B801C7010E941C11282F332727FD26
:101D6000309502C02FEF3FEFC901E6E068960C9472
:101D7000C111ACE0B0E0EFEBFEE00C94A911698377
:101D80007A838B839C83BE016B5F7F4FCE0101966C
:101D90000E94AC108D818230A9F1823098F184309C
:101DA00021F48E81882359F40FC02F81388537FDA7
:101DB00029C06E812F31310564F0662329F020E0BF
:101DC00030E040E050E822C02FEF3FEF4FEF5FE7F9
:101DD0001DC08EE190E0821B930B29853A854B85CF
:101DE0005C8504C056954795379527958A95D2F717
:101DF000662361F050954095309521953F4F4F4FA8
:101E00005F4F04C020E030E040E050E0CA01B9017B
:101E1000E2E02C960C94C511A8E0B0E0E2E1FFE00E
:101E20000C94A3117B018C0161157105810591054D
:101E300019F482E089835AC083E089838EE1C82E39
:101E4000D12CDC82CB82ED82FE820F831887C80101
:101E5000B7010E947F0FBC016150704077FF33C013
:101E6000EE27FF27E61BF70B20E030E040E050E0D4
:101E700081E090E0A0E0B0E00E2E04C0880F991F32
:101E8000AA1FBB1F0A94D2F70197A109B1098E219D
:101E90009F21A023B1230097A105B10521F021E0E6
:101EA00030E040E050E004C016950795F794E794C1
:101EB000EA95D2F72E293F29402B512B2D833E83C3
:101EC0004F8358870FC06115710581F0062E04C03D
:101ED000EE0CFF1C001F111F0A94D2F7ED82FE8248
:101EE0000F831887C61AD70ADC82CB821A82CE01EA
:101EF00001960E94CC0FE8E028960C94BF11EF9257
:101F0000FF920F931F939B01AC01203080E03807B4
:101F100081E0480780E0580780F42F3F31054105F4
:101F2000510509F020F4EE24FF24870119C068E070
:101F3000E62EF12C012D112D13C0203080E0380742
:101F400080E0480781E0580730F490E1E92EF12C59
:101F5000012D112D05C088E1E82EF12C012D112D48
:101F600080E290E0A0E0B0E08E199F09A00BB10BD9
:101F700004C05695479537952795EA94D2F7F9010D
:101F8000EF56FD4F2081821B9109A109B1091F91D4
:101F90000F91FF90EF9008959F92AF92BF92CF92D2
:101FA000DF92EF92FF920F931F93EE24FF2487019D
:101FB000FC01248135814681578191808081823066
:101FC00010F44061A2C0843009F49BC0823029F42F
:101FD00020E030E040E050E005C02115310541052A
:101FE000510519F4E0E0F0E092C0828193816FEF37
:101FF000823896070CF05AC062E87FEF681B790BB5
:102000006A3171052CF020E030E040E050E02AC059
:10201000AA24BB24650181E090E0A0E0B0E0062E98
:1020200004C0880F991FAA1FBB1F0A94D2F70197FB
:10203000A109B10982239323A423B5230097A10505
:10204000B10529F071E0A72EB12CC12CD12C04C010
:1020500056954795379527956A95D2F72A293B29B2
:102060004C295D29DA01C9018F779070A070B0709A
:1020700080349105A105B10539F427FF09C0205C22
:102080003F4F4F4F5F4F04C0215C3F4F4F4F5F4F5B
:1020900080E090E0203060E0360760E0460760E4D2
:1020A000560710F081E090E0FC0123C080389105D4
:1020B00044F5FC01E158FF4FDA01C9018F779070B8
:1020C000A070B07080349105A105B10539F427FFE7
:1020D00009C0205C3F4F4F4F5F4F04C0215C3F4F12
:1020E0004F4F5F4F57FF05C056954795379527953A
:1020F000319687E056954795379527958A95D1F77C
:1021000006C020E030E040E050E0EFEFF0E0E22EEB
:10211000F32E942F9F77802F8078892B9E2F979571
:10212000992797958F77082F092B9E2F9695812FAA
:102130008078892B9794992497948F77182F192951
:10214000C801B7011F910F91FF90EF90DF90CF90E2
:10215000BF90AF909F900895CF93DF93FC01DB0178
:10216000208131819281492F4F7750E0991F992723
:10217000991F8381E82FEE0FE92B6E2F70E0881FE7
:102180008827881FED018983EE2371F5211531051C
:102190004105510511F482E02FC06E577040FD01DA
:1021A0007383628367E0220F331F441F551F6A95B4
:1021B000D1F783E08C930AC0220F331F441F551FB1
:1021C000ED018A819B8101979B838A832030E0E027
:1021D0003E07E0E04E07E0E45E0770F3ED012C837C
:1021E0003D834E835F8325C0EF3F79F42115310590
:1021F0004105510519F484E08C931BC044FF03C0D2
:1022000081E08C9311C01C920FC06F577040ED019C
:102210007B836A8383E08C9387E0220F331F441F04
:10222000551F8A95D1F75064FD0124833583468379
:102230005783DF91CF910895CF93DF93DC01FB01AA
:102240009C91923008F446C08081823008F442C0EC
:10225000943049F4ED016981843079F5818190E011
:10226000861B91093CC0843021F0923031F48230D9
:10227000A1F18181882371F52AC0ED016981823045
:10228000E1F081816817C9F4ED012A813B818281E7
:102290009381821793078CF028173907B4F0ED016A
:1022A0008C819D81AE81BF8124813581468157819A
:1022B000281739074A075B0718F4662341F40AC058
:1022C00082179307A407B50740F4662319F48FEF2C
:1022D0009FEF05C081E090E002C080E090E0DF91D8
:1022E000CF910895AA1BBB1B51E107C0AA1FBB1FBA
:1022F000A617B70710F0A61BB70B881F991F5A9592
:10230000A9F780959095BC01CD01089597FB092E02
:1023100007260AD077FD04D0E5DF06D000201AF4A6
:10232000709561957F4F0895F6F7909581959F4F31
:1023300008952F923F924F925F926F927F928F9269
:102340009F92AF92BF92CF92DF92EF92FF920F9344
:102350001F93CF93DF93CDB7DEB7CA1BDB0B0FB64E
:10236000F894DEBF0FBECDBF19942A8839884888FB
:102370005F846E847D848C849B84AA84B984C884A1
:10238000DF80EE80FD800C811B81AA81B981CE0F98
:10239000D11D0FB6F894DEBF0FBECDBFED0108957D
:0223A000FFCF6D
:1023A200502E2D20506C617920536F6E670A0D56A6
:1023B2002E2D20496E63726561736520566F6C75B0
:1023C2006D65200A0D762E2D20446563726561735A
:1023D2006520566F6C756D65200A0D4E2E2D204EB0
:1023E2006578742020536F6E676E0A0D422E2D2081
:1023F20050726576696F757320536F6E670A0D00B0
:102402001B5B303B003B34306D001B5B324A001BD0
:102412005B00C000E8080405E40000029803566F60
:102422006C756D65203D2000320000000000000048
:10243200000001020203030303040404040404046D
:10244200040505050505050505050505050505053B
:10245200050606060606060606060606060606061B
:10246200060606060606060606060606060606060A
:1024720006070707070707070707070707070707EB
:1024820007070707070707070707070707070707DA
:1024920007070707070707070707070707070707CA
:1024A20007070707070707070707070707070707BA
:1024B200070808080808080808080808080808089B
:1024C200080808080808080808080808080808088A
:1024D200080808080808080808080808080808087A
:1024E200080808080808080808080808080808086A
:1024F200080808080808080808080808080808085A
:102502000808080808080808080808080808080849
:102512000808080808080808080808080808080839
:102522000808080808080808080808080808080829
:0225320008009F
:00000001FF
