:100000000C94BF050C94E0050C94E0050C94E005FD
:100010000C94E0050C94E0050C94E0050C94E005CC
:100020000C94E0050C94E0050C94E0050C94E005BC
:100030000C94E0050C94E0050C94E0050C94E005AC
:100040000C94E0050C94E0050C94E0050C94E0059C
:100050000C94E0050C94910A0C94E0050C94E005D6
:100060000C94E0050C9424080C94E3080C94E0052F
:100070000C94E0050C94E0050C94E0050C94E0056C
:100080000C94E0050C94E0050C94E0050C94E0055C
:100090000C94E0050C94E0050C94E0050C94E0054C
:1000A0000C94E0050C94E0050C94E0050C94E0053C
:1000B0000C94E0050C94E0050C94E0050C94E0052C
:1000C0000C94E0050C94E0050C94E0050C94E0051C
:1000D0000C94E0050C94E0050C94E0050C94E0050C
:1000E0000C94E00508000000BE922449123EABAA21
:1000F000AA2ABECDCCCC4C3E00000080BEABAAAA42
:10010000AA3E00000000BF000000803F0000000089
:1001100000084178D3BB4387D1133D190E3CC3BDC2
:100120004282AD2B3E68EC8276BED98FE1A93E4C6F
:1001300080EFFFBE01C4FF7F3F0000000000B80158
:100140006301B8016301B80163015D010A010B029B
:100150005800B80163015D010A010B025800B801A3
:10016000C602930263019302630193026301BA0220
:100170000A010B0258009F0163015D010A010B0295
:100180005800B801C60270036301B8010A01B80142
:100190005800700363013E03B1001003B100E40294
:1001A0005800BA025800E402B1000000B100D201C8
:1001B000B100780263014B02B1002A02B1000B02C8
:1001C0005800ED0158000B02B1000000B1005D01C4
:1001D00058009F0163015D010A01B80158000B023C
:1001E0006301B8010A010B0258009302C6027003B2
:1001F0006301B8010A01B8015800700363013E03AE
:10020000B1001003B100E4025800BA025800E40241
:10021000B1000000B100D201B100780263014B02CD
:10022000B1002A02B1000B025800ED0158000B0288
:10023000B1000000B1005D01B1009F0163015D01EB
:100240000A010B025800B80163015D010A010601B1
:100250005800B801C60201000000F700BB002601EB
:10026000BB007201BB00ED017102B801BB009F0130
:1002700077017201BB0026017701F700EE02F7005B
:10028000BB002601BB007201BB00ED017102B80189
:10029000BB009F0177017201BB0026017701F700C7
:1002A000EE022601BB002601BB002601BB001501A2
:1002B000BB0026013801D00071022601BB002601D7
:1002C000BB001501BB0026013801D00038017201C6
:1002D000BB007201BB007201BB004901BB0072018F
:1002E0003801150171027201BB007201BB004901A6
:1002F000BB0072013801150138018701FA0087013E
:10030000FA008701FA008701FA004901FA00260184
:10031000FA001501DC058701FA008701FA00870160
:10032000FA008701FA004901FA002601FA001501D6
:10033000DC052601BB002601BB002601BB00150120
:10034000BB0026013801D00071022601BB00260146
:10035000BB001501BB0026013801D0003801720135
:10036000BB007201BB007201BB004901BB007201FE
:100370003801150171027201BB007201BB00490115
:10038000BB0072013801150138018701FA008701AD
:10039000FA008701FA008701FA004901FA002601F4
:1003A000FA001501DC058701FA008701FA008701D0
:1003B000FA008701FA004901FA002601FA00150146
:1003C000DC0501000000060127070000A600000070
:1003D000A6000601A6000601A6000000A600D000A7
:1003E0004D01D000A6000000A600D0002707D000D5
:1003F000A600E900A60015014D010000A6001501A8
:100400005300000053001501530000005300150174
:100410005300000053001501A6000000A6001501BE
:100420005300000053001501530000005300150154
:100430005300000053001501530000005300150144
:10044000A6000000A600150153000000530015018E
:1004500053000000530037014D010000A600370192
:1004600053000000530037015300000053003701D0
:100470005300000053003701A6000000A60037011A
:1004800053000000530037015300000053003701B0
:1004900053000000530037015300000053003701A0
:1004A000A6000000A60037015300000053003701EA
:1004B000530000005300D201F3019F01A600000089
:1004C0004D01D201A600D201A6009F01A6000000A6
:1004D000A6009F01A60000004D019F014D010000F4
:1004E000A600D201F3019F01A60000004D01D20138
:1004F000A600D201A6009F01A6000000A6009F0151
:10050000A60000004D019F014D010000A6000B0256
:10051000F301D201A60000004D010B02A6000B0260
:10052000A600D201A6000000A600D201A60000008D
:100530004D01D2014D0100009A028701A600000082
:100540004D015D01A6005D01A6008701A600000027
:10055000A6008701A60000004D0187014D010000A3
:10056000A600D201F3019F01A60000004D01D201B7
:10057000A600D201A6009F01A6000000A6009F01D0
:10058000A60000004D019F014D010000A600D20110
:10059000F3019F01A60000004D01D201A600D20187
:1005A000A6009F01A6000000A6009F01A600000073
:1005B0004D019F014D010000A6000B02F301D20185
:1005C000A60000004D010B02A6000B02A600D201FE
:1005D000A6000000A600D201A60000004D01D20135
:1005E0004D0100009A028701A60000004D015D0147
:1005F000A6005D01A6008701A6000000A6008701F5
:10060000A60000004D0187014D0100004D015D0174
:10061000F301870140039F01F301D2014D019F01C6
:10062000A6008701A6005D01A6001501F3010B02DB
:100630002707D201A6000B020E0B5D01F301870113
:1006400040039F01F301D2014D019F01A6008701E4
:10065000A6005D01A6001501F3010B022707D201D8
:10066000A6000B02680AD201F3019F01A600000058
:100670004D01D201A600D201A6009F01A6000000F4
:10068000A6009F01A60000004D019F014D01000042
:10069000A600D201F3019F01A60000004D01D20186
:1006A000A600D201A6009F01A6000000A6009F019F
:1006B000A60000004D019F014D010000A6000B02A5
:1006C000F301D201A60000004D010B02A6000B02AF
:1006D000A600D201A6000000A600D201A6000000DC
:1006E0004D01D2014D010000A6005D01F30187011B
:1006F000A60000004D015D01A6005D01A600870176
:10070000A6000000A6008701A60000004D01870199
:100710004D010000A600D201F3019F01A6000000D8
:100720004D01D201A600D201A6009F01A600000043
:10073000A6009F01A60000004D019F014D01000091
:10074000A600D201F3019F01A60000004D01D201D5
:10075000A600D201A6009F01A6000000A6009F01EE
:10076000A60000004D019F014D010000A6009F0161
:10077000F3018701A60000004D019F01A6009F0123
:10078000A6008701A6000000A6008701A6000000C1
:100790004D0187014D010000A600D201F3019F0128
:1007A000400300003405010000005D012707000040
:1007B000A600D000A6005D01A6003701A60000003B
:1007C000A60037014D011501A6000000A600150185
:1007D00027071501A6003701A6005D014D010000A5
:1007E000A6005D015300000053005D0153000000AE
:1007F00053005D015300000053005D01A60000009E
:10080000A6005D015300000053005D01530000008D
:1008100053005D015300000053005D0153000000D0
:1008200053005D01A6000000A6005D01530000001A
:1008300053005D0153000000530087014D0100008B
:10084000A6008701530000005300870153000000F9
:10085000530087015300000053008701A6000000E9
:10086000A6008701530000005300870153000000D9
:10087000530087015300000053008701530000001C
:1008800053008701A6000000A60087015300000066
:1008900053008701530000005300D201F301060109
:1008A0004D015D014D01D201A6009F014D0187015F
:1008B000A6005D01F30137014D015D01A6000000B6
:1008C0004D0106014D015D014D01D201A6009F01C0
:1008D0004D018701A6005D01F30137014D015D0166
:1008E000A60000004D0106014D015D014D01D20140
:1008F000A6000B024D012A02A6000B02A600D2019F
:100900004D019F01A600D201A6000B029A02D2015E
:10091000F3019F014D0187014D015D01A6004901D1
:100920009A020000F30106014D015D014D01D20163
:10093000A6009F014D018701A6005D01F30137016B
:100940004D015D01A60000004D0106014D015D0154
:100950004D01D201A6009F014D018701A6005D0156
:10096000F30137014D015D01A60000004D010601B4
:100970004D015D014D01D201A6000B024D012A027D
:10098000A6000B02A600D2014D019F01A60087011F
:10099000A6000B02F9000000F900D2019A029F01A3
:1009A0004D0187014D019F01A60087019A020000B9
:1009B0004D011501A6005D01A6000B02A600000076
:1009C00040031501A6005D01A6000B024D01D201F6
:1009D000A6009F01A6008701A6000000A600E9006E
:1009E000A6001501A6009F01A60000004003E90033
:1009F000A6001501A6009F014D0187014D010000D1
:100A0000B50B1501A6005D01A6000B02A6000000B3
:100A100040031501A6005D01A6000B024D01D201A5
:100A2000A6009F01A60000004D013701A600870126
:100A3000A6007802A600000040033701A600870147
:100A4000A60078024D012A024D0100005B0C060150
:100A50004D015D014D01D201A6000B02F301D2014F
:100A6000A6009F01A6000000A60087014D019F017E
:100A7000F3018701A6005D01A6000000A600370172
:100A80004D015D019A025D01A6008701A6009F014C
:100A9000A60000009A02D2014D019F014D0187017D
:100AA000A600D201A6000000A600D201A6009F0168
:100AB0004D018701A6000000A6009F01A600870146
:100AC000F3015D014D014901A6000000A6005D0192
:100AD000A6000B02A6000000A6000B02A6000B0257
:100AE000A6000B02A6000B02A6000B02A600000047
:100AF000A6000B02F301D201A6000000A6009F0190
:100B00004D01D201A6009F014D018701A600000002
:100B1000A6005D01A6000000A60006014D019F0190
:100B2000F3018701A6005D01A6000000A6003701C1
:100B30004D015D019A025D01A6008701A6009F019B
:100B4000A60000009A02D2014D010B024D012A02BB
:100B5000A6000B02A6000000A6000B02A600D20110
:100B60004D019F01A6000000A6003701A6008701E5
:100B7000F3015D0140030000340501000000112471
:100B80001FBECFEFD1E2DEBFCDBF00E00CBF13E050
:100B9000A0E0B2E0EAE1FCE200E00BBF02C0079097
:100BA0000D92A23EB107D9F71AE0A2EEB3E001C060
:100BB0001D92A133B107E1F70E94E2050C940C16D7
:100BC0000C9400004F925F926F927F928F929F924F
:100BD000AF92BF92CF92DF92EF92FF920F931F934B
:100BE000CF93DF9380910101806480930101249A67
:100BF0000E94C209FC01808191819093E603809359
:100C0000E5030E94DC09EE24E39400E028E040E0E4
:100C100052EC61E070E080E00E94650778940E94E9
:100C20001F0860E080E00E94690880E092E00E9476
:100C3000010881E090E09093ED038093EC035CEE7B
:100C4000C52E53E0D52E40E6E42E42E0F42E0CE70C
:100C500012E03FE7432E32E0532ECCE8D2E02DE104
:100C6000622E2AE0722E9FE8A92E92E0B92E81EA28
:100C7000882E82E0982E0E945708882309F4F7C036
:100C80000E94D2078093EB038091EB03893609F42D
:100C90007DC08A3658F5873309F472C0883398F4DA
:100CA000833309F458C0843338F4803309F477C0AF
:100CB000823309F0C1C045C0853309F455C086337D
:100CC00009F0BAC057C0863509F472C0873538F4C8
:100CD000893309F45EC0803509F0AEC095C08B350C
:100CE00009F463C0853609F0A7C038C08237C9F15E
:100CF000833798F48F3609F44FC0803738F48D3637
:100D000009F45CC08E3609F097C06BC0803709F4D7
:100D100049C0813709F090C011C0863709F44AC034
:100D2000873730F4843719F1853709F085C02BC037
:100D3000873771F0893709F07FC01FC086E091E0E6
:100D400002C085E191E09093E8038093E70378C0C7
:100D500086E291E0F8CF87E391E0F5CF89E491E076
:100D6000F2CF8DE591E0EFCF82E791E0ECCF87E81D
:100D700091E0E9CF8FE991E0E6CF88EB91E0E3CF16
:100D800082ED91E0E0CF8DEE91E0DDCF8BE092E05F
:100D9000DACF8AE292E0D7CF8BE492E0D4CF88E733
:100DA00092E0D1CF83E992E0CECF8AEB92E0CBCF35
:100DB00081E001C08FEF0E94830C42C0C6010E94F7
:100DC000F20964E184E10E946908C7010E940108F8
:100DD00064E184E10E946908C8010E940E08C20112
:100DE00025C064E184E10E946908C8010E940E08E0
:100DF0000E94FE0990E04AE0BC01C3010E948809FC
:100E00000E940108C50112C0C6010E94650C64E180
:100E100084E10E946908C7010E94010864E184E13D
:100E20000E946908C8010E940E08C4010E940108BE
:100E3000CE010E940E0804C01092E8031092E7034E
:100E40009091E2038091EB03981711F40E94E60958
:100E50009091E2038091EB03981721F08091EB03CE
:100E60008093E2031092E4031092E30309C080919F
:100E7000E3039091E40301969093E4038093E303EA
:100E80008091E3039091E4038152934030F00E94FB
:100E9000EA091092E8031092E7036AE080E00E94FA
:100EA00069080E94ED090E94E5070E94610C8823F1
:100EB00009F0E1CE6091E7037091E8038091E903C6
:100EC0009091EA030E94300DD6CEEF920F93CF930C
:100ED000DF933E2D833060F490E0E3E0880F991FAC
:100EE000EA95E1F780549F4F9093BF028093BE0232
:100EF000A091BE02B091BF02FD0182E0819388E91A
:100F0000ED018983293010F08CE98983EF01219666
:100F1000313019F48181877F04C0323019F4818126
:100F200088608183013019F48881806306C08881DC
:100F3000023011F4806201C08F7C888388818F73B6
:100F400088832296D093BF02C093BE022297CB0122
:100F5000BA010E94BC119B01AC0160E074E284E71D
:100F60009BE40E94201020E030E040E05EE30E941D
:100F7000210F20E030E040E85FE30E94C30E0E94B2
:100F8000570D6A83DF91CF910F91EF900895809371
:100F9000C60008958091C00087FFFCCF8091C600F5
:100FA00090E008959091EE098091EF099817D1F3A0
:100FB000E091EF09F0E0E251F74F80819091EF0965
:100FC0009F5F9093EF0990E00895482F2091ED08DE
:100FD0008091EC0830E08F5F90E028173907B1F37B
:100FE000E091EC08F0E0E451F84F40838091EC0888
:100FF0008F5F8093EC088091C10080628093C10074
:101000000895CF93DF93EC0103C00E94E50721967A
:1010100088818823D1F7DF91CF9108950F931F9393
:101020008C018CEA92E00E940108C8010E9401082C
:1010300081EB92E00E9401081F910F91089586EBC9
:1010400092E00E94010808951F920F920FB60F922E
:1010500011242F933F938F939F93EF93FF932091AE
:10106000EF098091EE0930E08F5F90E02817390793
:1010700069F0E091EE098091C600F0E0E251F74F8F
:1010800080838091EE098F5F8093EE09FF91EF914D
:101090009F918F913F912F910F900FBE0F901F90B6
:1010A0001895E1ECF0E08081806280830895909152
:1010B000EE098091EF0920E030E0981711F021E06F
:1010C00030E0C9010895E1ECF0E080818F7D8083FC
:1010D0000895CF92DF92EF92FF920F931F93CF93D9
:1010E000DF93CDB7DEB725970FB6F894DEBF0FBEFE
:1010F000CDBFC82E062F7E010894E11CF11C85E0AF
:10110000F70111928A95E9F78BEB92E00E940108B2
:1011100010E04AE050E0B801C7010E948809C70109
:101120000E9401088BE30E94E507DD244AE050E0BD
:10113000B601C7010E948809C7010E94010886E61E
:101140000E94E50725960FB6F894DEBF0FBECDBF0F
:10115000DF91CF911F910F91FF90EF90DF90CF9093
:101160000895FC0103C08093C600319680818823D6
:10117000D1F70895FC0120E08091C00087FFFCCFEB
:101180009091C600892F80528F3530F4243120F49D
:101190009093C6002F5F9193983061F4222361F3FE
:1011A000215012929093C60080E28093C6009093E3
:1011B000C600E2CF9D3001F710828AE08093C6001E
:1011C0009093C60008951F920F920FB60F921124AC
:1011D0008F939F93EF93FF939091EC088091ED088C
:1011E000981771F0E091ED08F0E0E451F84F80813C
:1011F0008093C6008091ED088F5F8093ED0805C055
:101200008091C1008F7D8093C100FF91EF919F91EC
:101210008F910F900FBE0F901F9018950F931F93F3
:10122000CF93DF93EC0100E09091EE098091EF09FC
:101230009817D1F3E091EF09F0E0E251F74F1081F8
:101240008091EF098F5F8093EF09812F80528F3556
:1012500038F4043128F4812F0E94E5070F5F1993B9
:10126000183071F4002301F301501A9288E00E94B3
:10127000E50780E20E94E50788E00E94E507D4CFF9
:101280001D3091F618828AE00E94E5078DE00E94E9
:10129000E507DF91CF911F910F910895FC0140E088
:1012A00050E014C0892F80538A3098F4892F90E041
:1012B000C0979A0173E0220F331F7A95E1F7440F2C
:1012C000551F420F531F480F591F31969081992384
:1012D00049F7CA0108959C01DC0170E0615070403B
:1012E000FC01E60FF71F6F5F7F4F40E050E006C044
:1012F0009C9181818D934F5F5F4F91833197CB019B
:10130000841B950B01974817590794F3C901089559
:10131000EF92FF920F931F93CF93DF93EC019B010A
:10132000672B21F480E38883198224C000E010E059
:10133000E42EFF24C901B7010E9422148A309105CE
:1013400014F0895C01C0805DFE01E00FF11F808315
:101350000F5F1F4FC901B7010E9422149B01672B29
:1013600049F7FE01E00FF11F1082602FCE010E94AD
:101370006B09EC01CE01DF91CF911F910F91FF908E
:10138000EF90089580EC92E00895009719F480E0C2
:1013900090E00895BC0180E090E00E94BC119B01A8
:1013A000AC0160E074E284E796E40E9420100E94A1
:1013B000570D862F90E0089516BC8AEF87BD92E006
:1013C00094BD83E085BD90936E00089581E0809385
:1013D000F30908951092F30908958091F309805D4F
:1013E00090E008951092FC091092FB099093020A74
:1013F0008093010A81E08093F40908951092F40922
:10140000A091010AB091020AE091FB09F091FC0958
:10141000EE0FFF1FEE0FFF1FEA0FFB1F81E090E0B2
:10142000918380832091FB093091FC09C901880FC9
:10143000991F880F991FA80FB91F8AE090E0FD013E
:10144000938382832F5F3F4F3093FC092093FB09E6
:101450008091FB099091FC0990E00895282F8091DC
:10146000F009882351F1A091010AB091020AE0919C
:10147000FB09F091FC09EE0FFF1FEE0FFF1FEA0FB3
:10148000FB1F80819181019709F44AC08091FB097B
:101490009091FC09880F991F880F991FA80FB91FF9
:1014A0008D919C91892B21F08091D902882329F478
:1014B0001092B0001092B1000895222339F180916A
:1014C00001018064809301011092B2002093B30067
:1014D0002091B300269530E08091D902992787FDAD
:1014E0009095AC01249FC001259F900D349F900DD5
:1014F000112464E670E00E9436146093B40083E225
:101500008093B0008FE08093B10008958091B10086
:10151000887F8093B100809102018F7B80930201CC
:1015200008951F920F920FB60F9211242F933F939D
:101530004F935F936F937F938F939F93AF93BF93DB
:10154000CF93DF93EF93FF938091F009882309F005
:101550008FC08091F309882331F48091050A90911E
:10156000060A892B61F42091050A3091060A8091C0
:10157000F1099091F2092817390709F44FC08091B9
:10158000F4098823D9F12091050A3091060A809147
:10159000F1099091F2092817390781F1A091010A08
:1015A000B091020AE091FB09F091FC09EE0FFF1FD8
:1015B000EE0FFF1FEA0FFB1F8091F1099091F209D6
:1015C000918380832091FB093091FC09C901880F28
:1015D000991F880F991FA80FB91F8091F709909143
:1015E000F809FD01938382832F5F3F4F3093FC09FD
:1015F0002093FB091092F8091092F7098091050ACF
:101600009091060A0E94C5090E942E0A8091050A3F
:101610009091060A9093F2098093F1098091F40960
:10162000882331F18091F509882349F08091F709E9
:101630009091F80901969093F8098093F7098091A9
:10164000050A9091060A892B59F41092F5098091A8
:10165000F9099091FA0901969093FA098093F90992
:101660008091050A9091060A892B11F08091F50965
:101670008091F009882309F49AC08091F70990912C
:10168000F809892BF1F48091FB099091FC09892BD1
:10169000C1F48091F5098823A1F0E091FB09F09154
:1016A000FC09EE0FFF1FEE0FFF1F8091010A9091C2
:1016B000020AE80FF91F808191810E94C5090E94EA
:1016C0002E0A8091F7099091F809C091010AD091F2
:1016D000020AE091FB09F091FC09EE0FFF1FEE0FEB
:1016E000FF1FEC0FFD1F228133818217930769F4DE
:1016F0008091F509882349F01092F8091092F709B2
:101700001092F50980E00E942E0A8091F509882345
:1017100079F58091F9099091FA0901969093FA0967
:101720008093F9098091F9099091FA090A9701F5D6
:101730008091FB099091FC0901969093FC0980939C
:10174000FB09E091FB09F091FC09EE0FFF1FEE0F82
:10175000FF1FEC0FFD1F808191810E94C5090E942F
:101760002E0A1092FA091092F90981E08093F50986
:101770008091F7099091F80901969093F809809368
:10178000F7098091FB099091FC09880F991F880F38
:10179000991FC80FD91F88819981019741F4109230
:1017A000FC091092FB091092F8091092F709FF91B9
:1017B000EF91DF91CF91BF91AF919F918F917F91E9
:1017C0006F915F914F913F912F910F900FBE0F90AE
:1017D0001F901895482F2091010A3091020A80919C
:1017E000FF099091000A880F991F880F991F820F97
:1017F000931FFC01659174916130710509F443C038
:101800008091FF099091000A880F991F880F991FF6
:10181000280F391FF90185919491892B21F020918E
:10182000D902222329F41092800010928100089599
:10183000442319F1269A1092850010928400409357
:10184000880080918800869590E0332727FD3095A9
:10185000AC01429FC001439F900D529F900D1124F7
:1018600064E670E00E94361460938A0083E28093FD
:1018700080008DE1809381000895809181008A7FAE
:10188000809381002E9808959093040A8093030A10
:101890001092FE091092FD091092000A1092FF09A1
:1018A00081E08093F60910928500109284001092D6
:1018B000890010928B0008951092B0001092B10030
:1018C00008958091F00990E008951F939093020A83
:1018D0008093010A11E01093F0098091F009805D76
:1018E0000E94E5071093F5091092F8091092F70984
:1018F0001092FA091092F9091092FC091092FB0952
:1019000016BC1F910895AF92BF92CF92DF920F93B2
:101910001F93CF93DF93CDB7DEB728970FB6F89418
:10192000DEBF0FBECDBF8F3FC9F51091D902123077
:10193000BCF160E070E080E090E40E9485146D836B
:101940007E838F839887612F772767FD7095872F18
:10195000972F0E940B115B016C016091D70270916F
:10196000D802882777FD8095982F0E940B110E943E
:1019700085142D813E814F8158850E9420109B0146
:10198000AC01C601B5010E94C30E0E9469116093AB
:10199000D90267FF3EC01092D9023BC08823C9F12B
:1019A0000091D9020436ACF560E070E080E090E48C
:1019B0000E94851469837A838B839C83602F7727A9
:1019C00067FD7095872F972F0E940B115B016C01AB
:1019D0006091D7027091D802882777FD8095982F63
:1019E0000E940B110E94851429813A814B815C81F0
:1019F0000E9420109B01AC01C601B5010E94F40EAB
:101A00000E9469116093D90265361CF084E68093C8
:101A1000D90266E080E00E94690888EC92E00E94AA
:101A2000010866E088E00E9469086091D902772782
:101A300067FD70954AE089E09AE00E9488090E945B
:101A4000010828960FB6F894DEBF0FBECDBFDF9118
:101A5000CF911F910F91DF90CF90BF90AF900895DD
:101A6000EF92FF920F931F937B018C016093050A05
:101A70007093060A8093070A9093080A81E0809386
:101A8000F5091092F0098091F409805D0E94E50744
:101A9000EF2821F08091D902882321F41092B00020
:101AA0001092B1001F910F91FF90EF900895EF9267
:101AB000FF920F931F937B018C0120E030E040E008
:101AC0005FE40E94D51088237CF020E030E040E005
:101AD0005FE4C801B7010E94C30E0E946911605003
:101AE00070408040904804C0C801B7010E9469114D
:101AF0001F910F91FF90EF900895A0E0B0E0E3E810
:101B0000FDE00C944B142C015B01FA01DC019C916B
:101B1000923008F432C1EB018881823008F42CC184
:101B2000943071F4843009F028C1F20191818981E7
:101B3000981709F422C11AED412E12E0512E1DC151
:101B4000843009F419C18230A9F4923009F015C12A
:101B5000CA01A20128E0DA010D90AD01EC01099261
:101B6000CE012150C1F7E5018981E20199818923E4
:101B7000818300C1923009F4FFC0E201CA80DB809A
:101B8000EB018A819B81E2012C813D814E815F8145
:101B9000EB01EC80FD800E811F81B601681B790B83
:101BA000DB0177FF03C0709561957F4F603271054F
:101BB0000CF05DC01A161B065CF566247724430101
:101BC00081E090E0A0E0B0E0062E04C0880F991FED
:101BD000AA1FBB1F0A94D2F70197A109B1098E2150
:101BE0009F21A023B1230097A105B10529F0B1E001
:101BF0006B2E712C812C912C04C016950795F794AF
:101C0000E7946A95D2F7E628F728082919293BC0F6
:101C1000AB2BC9F1C60ED71E66247724430181E0A1
:101C200090E0A0E0B0E0062E04C0880F991FAA1F24
:101C3000BB1F0A94D2F70197A109B109822393230C
:101C4000A423B5230097A105B10529F0A1E06A2ED0
:101C5000712C812C912C04C056954795379527956A
:101C60006A95D2F726293729482959290CC08C159D
:101C70009D0534F06C0120E030E040E050E003C00E
:101C8000EE24FF248701E2019981E50189819817FB
:101C900009F443C0992339F0E21AF30A040B150B37
:101CA000A801970104C02E193F09400B510B57FDA5
:101CB00008C01182D382C28224833583468357832E
:101CC0001DC081E08183D382C28288279927DC01ED
:101CD000821B930BA40BB50B84839583A683B783D8
:101CE0000DC0220F331F441F551F248335834683A5
:101CF00057838281938101979383828324813581E5
:101D000046815781DA01C9010197A109B1098F5FA5
:101D10009F4FAF4FBF4328F30BC09183D382C28242
:101D20002E0D3F1D401F511F24833583468357834B
:101D300083E0808324813581468157815523D4F403
:101D4000C901AA2797FDA095BA2F81709070A07045
:101D5000B0705695479537952795822B932BA42BDA
:101D6000B52B84839583A683B78382819381019663
:101D7000938382832F0101C02501C201E0E1CDB729
:101D8000DEB70C946714A0E2B0E0E9ECFEE00C943E
:101D9000551469837A838B839C832D833E834F8381
:101DA000588709E0E02EF12CEC0EFD1EB701CE01A4
:101DB00001960E945C138E010F5E1F4FB801CE0189
:101DC00005960E945C138A8991E089278A8BAE016F
:101DD000475E5F4FB801C7010E947D0D0E947C12D3
:101DE000E6E0A0960C947114A0E2B0E0EAEFFEE009
:101DF0000C94551469837A838B839C832D833E8353
:101E00004F83588789E0E82EF12CEC0EFD1EB701B8
:101E1000CE0101960E945C138E010F5E1F4FB80128
:101E2000CE0105960E945C13AE01475E5F4FB8017C
:101E3000C7010E947D0D0E947C12E6E0A0960C94E2
:101E40007114A0E2B0E0E7E2FFE00C944B14698368
:101E50007A838B839C832D833E834F83588799E0BD
:101E6000E92EF12CEC0EFD1EB701CE0101960E9469
:101E70005C138E010F5E1F4FB801CE0105960E94C4
:101E80005C139985923088F089898230C0F0943053
:101E900019F4823029F009C0843029F4923079F4A1
:101EA0006AED72E0C6C0923041F420E09A858A89DA
:101EB000981321E02A87B701BCC0823041F420E0AA
:101EC0009A858A89981321E02A8BB801B2C0CD8403
:101ED000DE84EF84F8880D891E892F89388D882447
:101EE0009924540140E050E060E070E0442455241F
:101EF0003201E0E0F0E0C60181709070892BD9F0EA
:101F0000800E911EA21EB31EDB01CA01840D951D19
:101F1000A61DB71D40E050E060E070E0801691061D
:101F2000A206B30620F441E050E060E070E0480F04
:101F3000591F6A1F7B1F440C551C661C771C37FFFA
:101F400008C081E090E0A0E0B0E0482A592A6A2A5F
:101F50007B2A3196E032F10549F0000F111F221F54
:101F6000331FF694E794D794C794C5CF8B899C8987
:101F70002B853C85820F931F02969C8F8B8F1A8E28
:101F80009A858A89981711F081E08A8F2B8D3C8D74
:101F900017C0CA0181709070892B61F0B694A79424
:101FA0009794879480E090E0A0E0B0E8882A992A8E
:101FB000AA2ABB2A76956795579547952F5F3F4F7D
:101FC00077FDE7CFC9010BC0440F551F661F771F70
:101FD000B7FC4160880C991CAA1CBB1C01974030BF
:101FE000A0E05A07A0E06A07A0E47A0768F39C8F94
:101FF0008B8FDB01CA018F779070A070B070803436
:102000009105A105B10561F447FD0AC08114910451
:10201000A104B10429F0405C5F4F6F4F7F4F4078BF
:102020004D8F5E8F6F8F78A383E0898FBE01675ECF
:102030007F4FCB010E947C12E0E1A0960C946714C4
:10204000A8E1B0E0E6E2F0E10C94511469837A83F0
:102050008B839C832D833E834F8358878E01075F3C
:102060001F4FB801CE0101960E945C1381E1E82E5A
:10207000F12CEC0EFD1EB701CE0105960E945C13FB
:1020800039853230F8F02989223010F4B70186C042
:102090008A859A8989278A87343011F0323029F469
:1020A000321781F46AED72E079C0243039F41D866C
:1020B0001E861F86188A1C861B8604C0223021F4C7
:1020C00084E08987B8016AC06B857C858B899C898F
:1020D000681B790B7C876B872D853E854F855889DA
:1020E0008D899E89AF89B88D281739074A075B0704
:1020F00040F4220F331F441F551F615070407C87EE
:102100006B87A12CB12CC12C10E4D12EEE24FF241E
:10211000870160E070E0281739074A075B0740F045
:10212000EA28FB280C291D29281B390B4A0B5B0BBD
:10213000D694C794B794A794220F331F441F551FFA
:102140006F5F7F4F6F31710531F7D801C7018F770E
:102150009070A070B07080349105A105B105B9F4FC
:10216000E7FC15C0211531054105510581F080E4DA
:1021700090E0A0E0B0E0E80EF91E0A1F1B1F80E807
:102180009FEFAFEFBFEFE822F9220A231B23ED8672
:10219000FE860F87188BBE01675F7F4FCB010E94C1
:1021A0007C12EAE068960C946D14A8E1B0E0EBEDC7
:1021B000F0E10C94551469837A838B839C832D837F
:1021C0003E834F83588789E0E82EF12CEC0EFD1EEC
:1021D000B701CE0101960E945C138E010F5E1F4F66
:1021E000B801CE0105960E945C138985823060F0AB
:1021F0008989823048F0B801C7010E94CC13282F8A
:10220000332727FD309502C02FEF3FEFC901E6E0ED
:1022100068960C947114A8E0B0E0E1E1F1E10C944F
:1022200052149B01AC0183E08983DA01C90188273C
:10223000B7FD83959927AA27BB27B82E211531050D
:102240004105510519F482E089833AC08823A9F039
:10225000203080E0380780E0480780E8580729F4FC
:1022600060E070E080E09FEC30C0EE24FF24870146
:10227000E21AF30A040B150B02C079018A018EE100
:10228000C82ED12CDC82CB82ED82FE820F83188790
:10229000C801B7010E942F1201971816190684F47D
:1022A000082E04C0EE0CFF1C001F111F0A94D2F769
:1022B000ED82FE820F831887C81AD90ADC82CB828E
:1022C000BA82CE0101960E947C12E9E028960C9415
:1022D0006E14ACE0B0E0EFE6F1E10C9459146983C0
:1022E0007A838B839C83BE016B5F7F4FCE01019607
:1022F0000E945C138D818230A9F1823098F1843084
:1023000021F48E81882359F40FC02F81388537FD41
:1023100029C06E812F31310564F0662329F020E059
:1023200030E040E050E822C02FEF3FEF4FEF5FE793
:102330001DC08EE190E0821B930B29853A854B8569
:102340005C8504C056954795379527958A95D2F7B1
:10235000662361F050954095309521953F4F4F4F42
:102360005F4F04C020E030E040E050E0CA01B90116
:10237000E2E02C960C947514A8E0B0E0E2ECF1E1F8
:102380000C9453147B018C01611571058105910535
:1023900019F482E089835AC083E089838EE1C82ED4
:1023A000D12CDC82CB82ED82FE820F831887C8019C
:1023B000B7010E942F12BC016150704077FF33C0FB
:1023C000EE27FF27E61BF70B20E030E040E050E06F
:1023D00081E090E0A0E0B0E00E2E04C0880F991FCD
:1023E000AA1FBB1F0A94D2F70197A109B1098E2138
:1023F0009F21A023B1230097A105B10521F021E081
:1024000030E040E050E004C016950795F794E7945B
:10241000EA95D2F72E293F29402B512B2D833E835D
:102420004F8358870FC06115710581F0062E04C0D7
:10243000EE0CFF1C001F111F0A94D2F7ED82FE82E2
:102440000F831887C61AD70ADC82CB821A82CE0184
:1024500001960E947C12E8E028960C946F14EF928B
:10246000FF920F931F939B01AC01203080E038074F
:1024700081E0480780E0580780F42F3F310541058F
:10248000510509F020F4EE24FF24870119C068E00B
:10249000E62EF12C012D112D13C0203080E03807DD
:1024A00080E0480781E0580730F490E1E92EF12CF4
:1024B000012D112D05C088E1E82EF12C012D112DE3
:1024C00080E290E0A0E0B0E08E199F09A00BB10B74
:1024D00004C05695479537952795EA94D2F7F901A8
:1024E000EE51FD4F2081821B9109A109B1091F9175
:1024F0000F91FF90EF9008959F92AF92BF92CF926D
:10250000DF92EF92FF920F931F93EE24FF24870137
:10251000FC01248135814681578191808081823000
:1025200010F44061A2C0843009F49BC0823029F4C9
:1025300020E030E040E050E005C0211531054105C4
:10254000510519F4E0E0F0E092C0828193816FEFD1
:10255000823896070CF05AC062E87FEF681B790B4F
:102560006A3171052CF020E030E040E050E02AC0F4
:10257000AA24BB24650181E090E0A0E0B0E0062E33
:1025800004C0880F991FAA1FBB1F0A94D2F7019796
:10259000A109B10982239323A423B5230097A105A0
:1025A000B10529F071E0A72EB12CC12CD12C04C0AB
:1025B00056954795379527956A95D2F72A293B294D
:1025C0004C295D29DA01C9018F779070A070B07035
:1025D00080349105A105B10539F427FF09C0205CBD
:1025E0003F4F4F4F5F4F04C0215C3F4F4F4F5F4FF6
:1025F00080E090E0203060E0360760E0460760E46D
:10260000560710F081E090E0FC0123C0803891056E
:1026100044F5FC01E158FF4FDA01C9018F77907052
:10262000A070B07080349105A105B10539F427FF81
:1026300009C0205C3F4F4F4F5F4F04C0215C3F4FAC
:102640004F4F5F4F57FF05C05695479537952795D4
:10265000319687E056954795379527958A95D1F716
:1026600006C020E030E040E050E0EFEFF0E0E22E86
:10267000F32E942F9F77802F8078892B9E2F97950C
:10268000992797958F77082F092B9E2F9695812F45
:102690008078892B9794992497948F77182F1929EC
:1026A000C801B7011F910F91FF90EF90DF90CF907D
:1026B000BF90AF909F900895CF93DF93FC01DB0113
:1026C000208131819281492F4F7750E0991F9927BE
:1026D000991F8381E82FEE0FE92B6E2F70E0881F82
:1026E0008827881FED018983EE2371F521153105B7
:1026F0004105510511F482E02FC06E577040FD0175
:102700007383628367E0220F331F441F551F6A954E
:10271000D1F783E08C930AC0220F331F441F551F4B
:10272000ED018A819B8101979B838A832030E0E0C1
:102730003E07E0E04E07E0E45E0770F3ED012C8316
:102740003D834E835F8325C0EF3F79F4211531052A
:102750004105510519F484E08C931BC044FF03C06C
:1027600081E08C9311C01C920FC06F577040ED0137
:102770007B836A8383E08C9387E0220F331F441F9F
:10278000551F8A95D1F75064FD0124833583468314
:102790005783DF91CF910895CF93DF93DC01FB0145
:1027A0009C91923008F446C08081823008F442C087
:1027B000943049F4ED016981843079F5818190E0AC
:1027C000861B91093CC0843021F0923031F4823074
:1027D000A1F18181882371F52AC0ED0169818230E0
:1027E000E1F081816817C9F4ED012A813B81828182
:1027F0009381821793078CF028173907B4F0ED0105
:102800008C819D81AE81BF81248135814681578134
:10281000281739074A075B0718F4662341F40AC0F2
:1028200082179307A407B50740F4662319F48FEFC6
:102830009FEF05C081E090E002C080E090E0DF9172
:10284000CF910895AA1BBB1B51E107C0AA1FBB1F54
:10285000A617B70710F0A61BB70B881F991F5A952C
:10286000A9F780959095BC01CD01089597FB092E9D
:1028700007260AD077FD04D0E5DF06D000201AF441
:10288000709561957F4F0895F6F7909581959F4FCC
:1028900008952F923F924F925F926F927F928F9204
:1028A0009F92AF92BF92CF92DF92EF92FF920F93DF
:1028B0001F93CF93DF93CDB7DEB7CA1BDB0B0FB6E9
:1028C000F894DEBF0FBECDBF19942A883988488896
:1028D0005F846E847D848C849B84AA84B984C8843C
:1028E000DF80EE80FD800C811B81AA81B981CE0F33
:1028F000D11D0FB6F894DEBF0FBECDBFED01089518
:102900000EF00AC119C1689401C165D1C8F39923B9
:10291000D1F3C6F3DF93CF931F930F93FF92C92F89
:10292000DD2788232AF02197660F771F881FDAF7A3
:1029300020E030E040E85FEB9FE3883920F0803E04
:1029400030F021968F7750DAE4EEF0E003C04CDAF5
:10295000E1E1F1E0F4D08B01BE01EC01FB2E6F57F9
:1029600071097595771F880B990B55DC28E132E7C3
:1029700041E35FE314D0AF2D9801AE01FF900F91BA
:102980001F91CF91DF916FD00DC1FED028F003D100
:1029900018F0952309F0BAC0CFC0112437C113D164
:1029A000A0F3959FD1F3950F50E0551F629FF00162
:1029B000729FBB27F00DB11D639FAA27F00DB11DBB
:1029C000AA1F649F6627B00DA11D661F829F222744
:1029D000B00DA11D621F739FB00DA11D621F839FCB
:1029E000A00D611D221F749F3327A00D611D231FA1
:1029F000849F600D211D822F762F6A2F11249F57EF
:102A000050408AF0E1F088234AF0EE0FFF1FBB1F11
:102A1000661F771F881F91505040A9F79E3F5105B0
:102A200070F074C0F3C05F3FECF3983EDCF3869522
:102A300077956795B795F795E7959F5FC1F7FE2B5B
:102A4000880F911D9695879597F908959DD030F040
:102A5000A2D020F031F49F3F11F41EF46DC00EF4AB
:102A6000E095E7FB53C0E92FAED080F3BA176207B9
:102A700073078407950718F071F49EF5C6C00EF42D
:102A8000E0950B2EBA2FA02D0B01B90190010C017E
:102A9000CA01A0011124FF27591B99F0593F50F496
:102AA000503E68F11A16F040A22F232F342F4427EE
:102AB000585FF3CF469537952795A795F0405395E6
:102AC000C9F77EF41F16BA0B620B730B840BBAF0B6
:102AD0009150A1F0FF0FBB1F661F771F881FC2F721
:102AE0000EC0BA0F621F731F841F48F48795779535
:102AF0006795B795F7959E3F08F0B3CF9395880FEC
:102B000008F09927EE0F97958795089597F99F6795
:102B100080E870E060E008959F3F49F0915028F40C
:102B2000869577956795B7959F5F80389F4F880FFB
:102B30009695879597F908959FEF80EC0895DF9318
:102B4000CF931F930F93FF92EF92DF927B018C0143
:102B5000689405C0DA2EEF0122DFFE01E894A5910A
:102B60002591359145915591AEF3EF017CDFFE0142
:102B70009701A801DA9479F7DF90EF90FF900F9119
:102B80001F91CF91DF91089500240A94161617061D
:102B900018060906089500240A941216130614064E
:102BA00005060895092E0394000C11F4882352F0B1
:102BB000BB0F40F4BF2B11F460FF04C06F5F7F4F69
:102BC0008F4F9F4F089557FD9058440F551F59F050
:102BD0005F3F71F04795880F97FB991F61F09F3F0A
:102BE00079F087950895121613061406551FF2CF33
:102BF0004695F1DF08C0161617061806991FF1CF83
:102C000086957105610508940895E894BB276627A9
:0A2C10007727CB0197F90895FFCF55
:102C1A00502E2D20506C617920536F6E670A0D5625
:102C2A002E2D20496E63726561736520566F6C752F
:102C3A006D65200A0D762E2D2044656372656173D9
:102C4A006520566F6C756D65200A0D4E2E2D204E2F
:102C5A006578742020536F6E676E0A0D422E2D2000
:102C6A0050726576696F757320536F6E670A0D002F
:102C7A00202020202020202020202020202020204A
:102C8A002020202020202020202020003331005224
:102C9A0045434F5244494E472E2E2E0033370020CB
:102CAA004E4F54205245434F5244494E472E2E2EE2
:102CBA0000504C4159494E472E2E2E001B5B303B8B
:102CCA00003B34306D001B5B324A001B5B00C000C6
:102CDA00AA07C6033E015A02566F6C756D65203D00
:102CEA0020202020202000000132000000000000E7
:102CFA0000000001020203030303040404040404A1
:102D0A00040405050505050505050505050505056B
:102D1A00050506060606060606060606060606064B
:102D2A000606060606060606060606060606060639
:102D3A00060607070707070707070707070707071B
:102D4A000707070707070707070707070707070709
:102D5A0007070707070707070707070707070707F9
:102D6A0007070707070707070707070707070707E9
:102D7A0007070808080808080808080808080808CB
:102D8A0008080808080808080808080808080808B9
:102D9A0008080808080808080808080808080808A9
:102DAA000808080808080808080808080808080899
:102DBA000808080808080808080808080808080889
:102DCA000808080808080808080808080808080879
:102DDA000808080808080808080808080808080869
:102DEA000808080808080808080808080808080859
:022DFA000808C7
:00000001FF
